{"abi":[{"type":"constructor","inputs":[],"stateMutability":"nonpayable"},{"type":"receive","stateMutability":"payable"},{"type":"function","name":"owner","inputs":[],"outputs":[{"name":"","type":"address","internalType":"address"}],"stateMutability":"view"},{"type":"function","name":"withdraw","inputs":[{"name":"token","type":"address","internalType":"address"}],"outputs":[],"stateMutability":"nonpayable"},{"type":"function","name":"withdrawETH","inputs":[],"outputs":[],"stateMutability":"nonpayable"}],"bytecode":{"object":"0x60a060405234801561000f575f5ffd5b503373ffffffffffffffffffffffffffffffffffffffff1660808173ffffffffffffffffffffffffffffffffffffffff16815250506080516107b96100775f395f818160ac01528181610214015281816102da015281816102fe015261038d01526107b95ff3fe608060405260043610610037575f3560e01c806351cff8d9146100425780638da5cb5b1461006a578063e086e5ec146100945761003e565b3661003e57005b5f5ffd5b34801561004d575f5ffd5b50610068600480360381019061006391906104b3565b6100aa565b005b348015610075575f5ffd5b5061007e6102d8565b60405161008b91906104ed565b60405180910390f35b34801561009f575f5ffd5b506100a86102fc565b005b7f000000000000000000000000000000000000000000000000000000000000000073ffffffffffffffffffffffffffffffffffffffff163373ffffffffffffffffffffffffffffffffffffffff1614610138576040517f08c379a000000000000000000000000000000000000000000000000000000000815260040161012f90610560565b60405180910390fd5b5f8173ffffffffffffffffffffffffffffffffffffffff166370a08231306040518263ffffffff1660e01b815260040161017291906104ed565b602060405180830381865afa15801561018d573d5f5f3e3d5ffd5b505050506040513d601f19601f820116820180604052508101906101b191906105b1565b90505f81116101f5576040517f08c379a00000000000000000000000000000000000000000000000000000000081526004016101ec90610626565b60405180910390fd5b5f8273ffffffffffffffffffffffffffffffffffffffff1663a9059cbb7f0000000000000000000000000000000000000000000000000000000000000000846040518363ffffffff1660e01b8152600401610251929190610653565b6020604051808303815f875af115801561026d573d5f5f3e3d5ffd5b505050506040513d601f19601f8201168201806040525081019061029191906106af565b9050806102d3576040517f08c379a00000000000000000000000000000000000000000000000000000000081526004016102ca90610724565b60405180910390fd5b505050565b7f000000000000000000000000000000000000000000000000000000000000000081565b7f000000000000000000000000000000000000000000000000000000000000000073ffffffffffffffffffffffffffffffffffffffff163373ffffffffffffffffffffffffffffffffffffffff161461038a576040517f08c379a000000000000000000000000000000000000000000000000000000000815260040161038190610560565b60405180910390fd5b5f7f000000000000000000000000000000000000000000000000000000000000000073ffffffffffffffffffffffffffffffffffffffff16476040516103cf9061076f565b5f6040518083038185875af1925050503d805f8114610409576040519150601f19603f3d011682016040523d82523d5f602084013e61040e565b606091505b5050905080610452576040517f08c379a000000000000000000000000000000000000000000000000000000000815260040161044990610724565b60405180910390fd5b50565b5f5ffd5b5f73ffffffffffffffffffffffffffffffffffffffff82169050919050565b5f61048282610459565b9050919050565b61049281610478565b811461049c575f5ffd5b50565b5f813590506104ad81610489565b92915050565b5f602082840312156104c8576104c7610455565b5b5f6104d58482850161049f565b91505092915050565b6104e781610478565b82525050565b5f6020820190506105005f8301846104de565b92915050565b5f82825260208201905092915050565b7f6e6f74206f776e657200000000000000000000000000000000000000000000005f82015250565b5f61054a600983610506565b915061055582610516565b602082019050919050565b5f6020820190508181035f8301526105778161053e565b9050919050565b5f819050919050565b6105908161057e565b811461059a575f5ffd5b50565b5f815190506105ab81610587565b92915050565b5f602082840312156105c6576105c5610455565b5b5f6105d38482850161059d565b91505092915050565b7f6e6f2062616c616e6365000000000000000000000000000000000000000000005f82015250565b5f610610600a83610506565b915061061b826105dc565b602082019050919050565b5f6020820190508181035f83015261063d81610604565b9050919050565b61064d8161057e565b82525050565b5f6040820190506106665f8301856104de565b6106736020830184610644565b9392505050565b5f8115159050919050565b61068e8161067a565b8114610698575f5ffd5b50565b5f815190506106a981610685565b92915050565b5f602082840312156106c4576106c3610455565b5b5f6106d18482850161069b565b91505092915050565b7f7472616e73666572206661696c656400000000000000000000000000000000005f82015250565b5f61070e600f83610506565b9150610719826106da565b602082019050919050565b5f6020820190508181035f83015261073b81610702565b9050919050565b5f81905092915050565b50565b5f61075a5f83610742565b91506107658261074c565b5f82019050919050565b5f6107798261074f565b915081905091905056fea264697066735822122039f64438dcf66178a1b803e4516fe10dcb29879f33261ebf2afa8cb1ca14f29364736f6c63430008210033","linkReferences":{}},"methodIdentifiers":{"owner()":"8da5cb5b","withdraw(address)":"51cff8d9","withdrawETH()":"e086e5ec"},"id":0}